:100000000C94D5000C94F9000C94F9000C94F900B0
:100010000C94F9000C94F9000C94F9000C94F9007C
:100020000C94F9000C94F9000C94F9000C94F9006C
:100030000C94F9000C94F9000C94F9000C94F9005C
:100040000C94F9000C94F9000C94F9000C94F9004C
:100050000C94F9000C94F9000C94F9000C941A011A
:100060000C94F9000C94F9000C94F9000C94F9002C
:100070000C94F9000C94F9000C94F9000C94F9001C
:100080000C94F9000C94F9000C94F9000C94F9000C
:100090000C94F9000C94F9000C94F9000C94F900FC
:1000A0000C94F9000C94F9000C94F9000C94F900EC
:1000B0000C94F9000C94F9000C94F9000C94F900DC
:1000C0000C94F9000C94F9000C94F9000C94F900CC
:1000D0000C94F9000C94F9000C94F9000C94F900BC
:1000E0000C94F9000C942502000022002500280041
:1000F0002B002E0031003400020100000501080130
:100100000B0100002100240027002A002D003000F0
:10011000330001010000040107010A01050505057E
:10012000070508080808020202020A0A080804046F
:10013000040401010101010101010303030303039D
:100140000303040707070C0C0C0C0C0C0C0C02022C
:10015000020206060606060606060B0B0B0B0B0B29
:100160000B0B0102102020080810204010204080B6
:10017000020102010804020101020408102040806B
:1001800080402010080402018004020180402010F9
:100190000804020108040201010204081020408042
:1001A0000102040810204080250211241FBECFEF59
:1001B000D1E2DEBFCDBF00E00CBF2EE0A0E0B2E098
:1001C00001C01D92A732B207E1F710E0C5EDD0E003
:1001D00000E006C021970109802FFE010E947D02E8
:1001E000C43DD10780E00807A9F70E9464010C9480
:1001F00085020C94000090E0FC01EE59FE4F249122
:10020000845E9E4FFC018491882399F090E0880FD2
:10021000991FFC01EE5FFE4FA591B491FC01E851DE
:10022000FF4F859194918FB7F894EC91E22BEC936A
:100230008FBF08951F920F920FB60F9211242F9324
:100240003F938F939F93AF93BF93809105029091BB
:100250000602A0910702B09108023091040223E047
:10026000230F2D3758F50196A11DB11D20930402CF
:100270008093050290930602A0930702B0930802B0
:100280008091000290910102A0910202B0910302BC
:100290000196A11DB11D8093000290930102A093CD
:1002A0000202B0930302BF91AF919F918F913F9152
:1002B0002F910F900FBE0F901F90189526E8230FD7
:1002C0000296A11DB11DD2CF789484B5826084BD01
:1002D00084B5816084BD85B5826085BD85B581604A
:1002E00085BD80916E00816080936E0010928100C8
:1002F0008091810082608093810080918100816083
:100300008093810080918000816080938000809143
:10031000B10084608093B1008091B00081608093CF
:10032000B000809191008260809391008091910053
:100330008160809391008091900081608093900013
:100340008091A10082608093A1008091A1008160D2
:100350008093A1008091A00081608093A000809193
:10036000210182608093210180912101816080932D
:1003700021018091200181608093200180917A0089
:10038000846080937A0080917A00826080937A0002
:1003900080917A00816080937A0080917A008068F1
:1003A00080937A001092C1008EE290E09093220E2A
:1003B0008093210E82E390E09093240E8093230E8D
:1003C00080E390E09093260E8093250E8EE20E94AB
:1003D000FB008091230E0E94FB008091250E0E945D
:1003E000FB0087E090E09093180E8093170E85E055
:1003F00090E090931A0E8093190E86E090E090930F
:100400001C0E80931B0E84E090E090931E0E809350
:100410001D0E8FEF9FEF9093200E80931F0E87E0AD
:100420000E94FB008091190E0E94FB0080911B0E20
:100430000E94FB0080911D0E0E94FB00C0E0D0E0F6
:100440002097F1F30E940000FBCFCF93DF93E9E008
:10045000F2E09F0120583E4F9E2F8F2FE92FF82F5B
:10046000CF01C096108211821282138214821582EB
:100470003696E817F907B1F79E2F8F2FE217F3078B
:1004800069F78EE0E930F80721F78FEF8093120EBD
:1004900081E08093110E29E032E0C0E8D1E0F9015B
:1004A00070E060E090E080E0A82F41E0882339F020
:1004B00051E042E05A1718F4440F5F5FFBCF8C9F66
:1004C000D0018D9FB00D9C9FB00D1124AE0FBF1FAA
:1004D00015964C9301968830910531F76F5F7F4FE9
:1004E000F09668307105F1F62A5F3F4F82E02933BC
:1004F0003807A9F6DF91CF910895EE0FFF1F881FEF
:0E0500008BBF0790F691E02D1994F894FFCF71
:00000001FF
